{
  "_format": "hh-sol-artifact-1",
  "contractName": "GameNFT",
  "sourceName": "contracts/GameNFT.sol",
  "abi": [
    {
      "inputs": [],
      "stateMutability": "nonpayable",
      "type": "constructor"
    },
    {
      "inputs": [
        {
          "internalType": "address",
          "name": "sender",
          "type": "address"
        },
        {
          "internalType": "uint256",
          "name": "tokenId",
          "type": "uint256"
        },
        {
          "internalType": "address",
          "name": "owner",
          "type": "address"
        }
      ],
      "name": "ERC721IncorrectOwner",
      "type": "error"
    },
    {
      "inputs": [
        {
          "internalType": "address",
          "name": "operator",
          "type": "address"
        },
        {
          "internalType": "uint256",
          "name": "tokenId",
          "type": "uint256"
        }
      ],
      "name": "ERC721InsufficientApproval",
      "type": "error"
    },
    {
      "inputs": [
        {
          "internalType": "address",
          "name": "approver",
          "type": "address"
        }
      ],
      "name": "ERC721InvalidApprover",
      "type": "error"
    },
    {
      "inputs": [
        {
          "internalType": "address",
          "name": "operator",
          "type": "address"
        }
      ],
      "name": "ERC721InvalidOperator",
      "type": "error"
    },
    {
      "inputs": [
        {
          "internalType": "address",
          "name": "owner",
          "type": "address"
        }
      ],
      "name": "ERC721InvalidOwner",
      "type": "error"
    },
    {
      "inputs": [
        {
          "internalType": "address",
          "name": "receiver",
          "type": "address"
        }
      ],
      "name": "ERC721InvalidReceiver",
      "type": "error"
    },
    {
      "inputs": [
        {
          "internalType": "address",
          "name": "sender",
          "type": "address"
        }
      ],
      "name": "ERC721InvalidSender",
      "type": "error"
    },
    {
      "inputs": [
        {
          "internalType": "uint256",
          "name": "tokenId",
          "type": "uint256"
        }
      ],
      "name": "ERC721NonexistentToken",
      "type": "error"
    },
    {
      "inputs": [
        {
          "internalType": "address",
          "name": "owner",
          "type": "address"
        }
      ],
      "name": "OwnableInvalidOwner",
      "type": "error"
    },
    {
      "inputs": [
        {
          "internalType": "address",
          "name": "account",
          "type": "address"
        }
      ],
      "name": "OwnableUnauthorizedAccount",
      "type": "error"
    },
    {
      "anonymous": false,
      "inputs": [
        {
          "indexed": true,
          "internalType": "address",
          "name": "owner",
          "type": "address"
        },
        {
          "indexed": true,
          "internalType": "address",
          "name": "approved",
          "type": "address"
        },
        {
          "indexed": true,
          "internalType": "uint256",
          "name": "tokenId",
          "type": "uint256"
        }
      ],
      "name": "Approval",
      "type": "event"
    },
    {
      "anonymous": false,
      "inputs": [
        {
          "indexed": true,
          "internalType": "address",
          "name": "owner",
          "type": "address"
        },
        {
          "indexed": true,
          "internalType": "address",
          "name": "operator",
          "type": "address"
        },
        {
          "indexed": false,
          "internalType": "bool",
          "name": "approved",
          "type": "bool"
        }
      ],
      "name": "ApprovalForAll",
      "type": "event"
    },
    {
      "anonymous": false,
      "inputs": [
        {
          "indexed": false,
          "internalType": "uint256",
          "name": "_fromTokenId",
          "type": "uint256"
        },
        {
          "indexed": false,
          "internalType": "uint256",
          "name": "_toTokenId",
          "type": "uint256"
        }
      ],
      "name": "BatchMetadataUpdate",
      "type": "event"
    },
    {
      "anonymous": false,
      "inputs": [
        {
          "indexed": true,
          "internalType": "address",
          "name": "to",
          "type": "address"
        },
        {
          "indexed": true,
          "internalType": "uint256",
          "name": "tokenId",
          "type": "uint256"
        },
        {
          "indexed": false,
          "internalType": "string",
          "name": "tokenURI",
          "type": "string"
        }
      ],
      "name": "GameNFTMinted",
      "type": "event"
    },
    {
      "anonymous": false,
      "inputs": [
        {
          "indexed": false,
          "internalType": "uint256",
          "name": "_tokenId",
          "type": "uint256"
        }
      ],
      "name": "MetadataUpdate",
      "type": "event"
    },
    {
      "anonymous": false,
      "inputs": [
        {
          "indexed": true,
          "internalType": "address",
          "name": "previousOwner",
          "type": "address"
        },
        {
          "indexed": true,
          "internalType": "address",
          "name": "newOwner",
          "type": "address"
        }
      ],
      "name": "OwnershipTransferred",
      "type": "event"
    },
    {
      "anonymous": false,
      "inputs": [
        {
          "indexed": true,
          "internalType": "address",
          "name": "from",
          "type": "address"
        },
        {
          "indexed": true,
          "internalType": "address",
          "name": "to",
          "type": "address"
        },
        {
          "indexed": true,
          "internalType": "uint256",
          "name": "tokenId",
          "type": "uint256"
        }
      ],
      "name": "Transfer",
      "type": "event"
    },
    {
      "inputs": [
        {
          "internalType": "address",
          "name": "to",
          "type": "address"
        },
        {
          "internalType": "uint256",
          "name": "tokenId",
          "type": "uint256"
        }
      ],
      "name": "approve",
      "outputs": [],
      "stateMutability": "nonpayable",
      "type": "function"
    },
    {
      "inputs": [
        {
          "internalType": "address",
          "name": "owner",
          "type": "address"
        }
      ],
      "name": "balanceOf",
      "outputs": [
        {
          "internalType": "uint256",
          "name": "",
          "type": "uint256"
        }
      ],
      "stateMutability": "view",
      "type": "function"
    },
    {
      "inputs": [
        {
          "internalType": "uint256",
          "name": "tokenId",
          "type": "uint256"
        }
      ],
      "name": "getApproved",
      "outputs": [
        {
          "internalType": "address",
          "name": "",
          "type": "address"
        }
      ],
      "stateMutability": "view",
      "type": "function"
    },
    {
      "inputs": [],
      "name": "getCurrentTokenId",
      "outputs": [
        {
          "internalType": "uint256",
          "name": "",
          "type": "uint256"
        }
      ],
      "stateMutability": "view",
      "type": "function"
    },
    {
      "inputs": [
        {
          "internalType": "address",
          "name": "owner",
          "type": "address"
        },
        {
          "internalType": "address",
          "name": "operator",
          "type": "address"
        }
      ],
      "name": "isApprovedForAll",
      "outputs": [
        {
          "internalType": "bool",
          "name": "",
          "type": "bool"
        }
      ],
      "stateMutability": "view",
      "type": "function"
    },
    {
      "inputs": [
        {
          "internalType": "address",
          "name": "to",
          "type": "address"
        },
        {
          "internalType": "string",
          "name": "uri",
          "type": "string"
        }
      ],
      "name": "mintGameNFT",
      "outputs": [
        {
          "internalType": "uint256",
          "name": "",
          "type": "uint256"
        }
      ],
      "stateMutability": "nonpayable",
      "type": "function"
    },
    {
      "inputs": [],
      "name": "name",
      "outputs": [
        {
          "internalType": "string",
          "name": "",
          "type": "string"
        }
      ],
      "stateMutability": "view",
      "type": "function"
    },
    {
      "inputs": [],
      "name": "owner",
      "outputs": [
        {
          "internalType": "address",
          "name": "",
          "type": "address"
        }
      ],
      "stateMutability": "view",
      "type": "function"
    },
    {
      "inputs": [
        {
          "internalType": "uint256",
          "name": "tokenId",
          "type": "uint256"
        }
      ],
      "name": "ownerOf",
      "outputs": [
        {
          "internalType": "address",
          "name": "",
          "type": "address"
        }
      ],
      "stateMutability": "view",
      "type": "function"
    },
    {
      "inputs": [],
      "name": "renounceOwnership",
      "outputs": [],
      "stateMutability": "nonpayable",
      "type": "function"
    },
    {
      "inputs": [
        {
          "internalType": "address",
          "name": "from",
          "type": "address"
        },
        {
          "internalType": "address",
          "name": "to",
          "type": "address"
        },
        {
          "internalType": "uint256",
          "name": "tokenId",
          "type": "uint256"
        }
      ],
      "name": "safeTransferFrom",
      "outputs": [],
      "stateMutability": "nonpayable",
      "type": "function"
    },
    {
      "inputs": [
        {
          "internalType": "address",
          "name": "from",
          "type": "address"
        },
        {
          "internalType": "address",
          "name": "to",
          "type": "address"
        },
        {
          "internalType": "uint256",
          "name": "tokenId",
          "type": "uint256"
        },
        {
          "internalType": "bytes",
          "name": "data",
          "type": "bytes"
        }
      ],
      "name": "safeTransferFrom",
      "outputs": [],
      "stateMutability": "nonpayable",
      "type": "function"
    },
    {
      "inputs": [
        {
          "internalType": "address",
          "name": "operator",
          "type": "address"
        },
        {
          "internalType": "bool",
          "name": "approved",
          "type": "bool"
        }
      ],
      "name": "setApprovalForAll",
      "outputs": [],
      "stateMutability": "nonpayable",
      "type": "function"
    },
    {
      "inputs": [
        {
          "internalType": "bytes4",
          "name": "interfaceId",
          "type": "bytes4"
        }
      ],
      "name": "supportsInterface",
      "outputs": [
        {
          "internalType": "bool",
          "name": "",
          "type": "bool"
        }
      ],
      "stateMutability": "view",
      "type": "function"
    },
    {
      "inputs": [],
      "name": "symbol",
      "outputs": [
        {
          "internalType": "string",
          "name": "",
          "type": "string"
        }
      ],
      "stateMutability": "view",
      "type": "function"
    },
    {
      "inputs": [
        {
          "internalType": "uint256",
          "name": "tokenId",
          "type": "uint256"
        }
      ],
      "name": "tokenURI",
      "outputs": [
        {
          "internalType": "string",
          "name": "",
          "type": "string"
        }
      ],
      "stateMutability": "view",
      "type": "function"
    },
    {
      "inputs": [
        {
          "internalType": "address",
          "name": "from",
          "type": "address"
        },
        {
          "internalType": "address",
          "name": "to",
          "type": "address"
        },
        {
          "internalType": "uint256",
          "name": "tokenId",
          "type": "uint256"
        }
      ],
      "name": "transferFrom",
      "outputs": [],
      "stateMutability": "nonpayable",
      "type": "function"
    },
    {
      "inputs": [
        {
          "internalType": "address",
          "name": "newOwner",
          "type": "address"
        }
      ],
      "name": "transferOwnership",
      "outputs": [],
      "stateMutability": "nonpayable",
      "type": "function"
    }
  ],
  "bytecode": "0x60806040523480156200001157600080fd5b50336040518060400160405280600f81526020016e41492047616d652047656e6573697360881b81525060405180604001604052806006815260200165414947414d4560d01b81525081600090816200006b9190620001ba565b5060016200007a8282620001ba565b5050506001600160a01b038116620000ac57604051631e4fbdf760e01b81526000600482015260240160405180910390fd5b620000b781620000c3565b50600160085562000286565b600780546001600160a01b038381166001600160a01b0319831681179093556040519116919082907f8be0079c531659141344cd1fd0a4f28419497f9722a3daafe3b4186f6b6457e090600090a35050565b634e487b7160e01b600052604160045260246000fd5b600181811c908216806200014057607f821691505b6020821081036200016157634e487b7160e01b600052602260045260246000fd5b50919050565b601f821115620001b557600081815260208120601f850160051c81016020861015620001905750805b601f850160051c820191505b81811015620001b1578281556001016200019c565b5050505b505050565b81516001600160401b03811115620001d657620001d662000115565b620001ee81620001e784546200012b565b8462000167565b602080601f8311600181146200022657600084156200020d5750858301515b600019600386901b1c1916600185901b178555620001b1565b600085815260208120601f198616915b82811015620002575788860151825594840194600190910190840162000236565b5085821015620002765787850151600019600388901b60f8161c191681555b5050505050600190811b01905550565b6114c480620002966000396000f3fe608060405234801561001057600080fd5b50600436106101165760003560e01c8063715018a6116100a2578063a22cb46511610071578063a22cb4651461022e578063b88d4fde14610241578063c87b56dd14610254578063e985e9c514610267578063f2fde38b1461027a57600080fd5b8063715018a6146101fa57806382c85852146102025780638da5cb5b1461021557806395d89b411461022657600080fd5b806323b872dd116100e957806323b872dd1461019857806342842e0e146101ab57806356189236146101be5780636352211e146101d457806370a08231146101e757600080fd5b806301ffc9a71461011b57806306fdde0314610143578063081812fc14610158578063095ea7b314610183575b600080fd5b61012e610129366004610f74565b61028d565b60405190151581526020015b60405180910390f35b61014b61029e565b60405161013a9190610fe1565b61016b610166366004610ff4565b610330565b6040516001600160a01b03909116815260200161013a565b610196610191366004611029565b610359565b005b6101966101a6366004611053565b610368565b6101966101b9366004611053565b6103f8565b6101c6610418565b60405190815260200161013a565b61016b6101e2366004610ff4565b61042e565b6101c66101f536600461108f565b610439565b610196610481565b6101c6610210366004611136565b610495565b6007546001600160a01b031661016b565b61014b610513565b61019661023c366004611198565b610522565b61019661024f3660046111d4565b61052d565b61014b610262366004610ff4565b610545565b61012e610275366004611250565b610550565b61019661028836600461108f565b61057e565b6000610298826105bc565b92915050565b6060600080546102ad90611283565b80601f01602080910402602001604051908101604052809291908181526020018280546102d990611283565b80156103265780601f106102fb57610100808354040283529160200191610326565b820191906000526020600020905b81548152906001019060200180831161030957829003601f168201915b5050505050905090565b600061033b826105e1565b506000828152600460205260409020546001600160a01b0316610298565b61036482823361061a565b5050565b6001600160a01b03821661039757604051633250574960e11b8152600060048201526024015b60405180910390fd5b60006103a4838333610627565b9050836001600160a01b0316816001600160a01b0316146103f2576040516364283d7b60e01b81526001600160a01b038086166004830152602482018490528216604482015260640161038e565b50505050565b6104138383836040518060200160405280600081525061052d565b505050565b6000600160085461042991906112d3565b905090565b6000610298826105e1565b60006001600160a01b038216610465576040516322718ad960e21b81526000600482015260240161038e565b506001600160a01b031660009081526003602052604090205490565b610489610720565b610493600061074d565b565b600061049f610720565b60088054600091826104b0836112e6565b9190505590506104c0848261079f565b6104ca81846107b9565b80846001600160a01b03167f01701d70822276b5fb79aaabd6b1c168ffa07ca0f22e6936f8a04fd367ac5348856040516105049190610fe1565b60405180910390a39392505050565b6060600180546102ad90611283565b610364338383610809565b610538848484610368565b6103f233858585856108a8565b6060610298826109d3565b6001600160a01b03918216600090815260056020908152604080832093909416825291909152205460ff1690565b610586610720565b6001600160a01b0381166105b057604051631e4fbdf760e01b81526000600482015260240161038e565b6105b98161074d565b50565b60006001600160e01b03198216632483248360e11b1480610298575061029882610ae4565b6000818152600260205260408120546001600160a01b03168061029857604051637e27328960e01b81526004810184905260240161038e565b6104138383836001610b34565b6000828152600260205260408120546001600160a01b039081169083161561065457610654818486610c3a565b6001600160a01b0381161561069257610671600085600080610b34565b6001600160a01b038116600090815260036020526040902080546000190190555b6001600160a01b038516156106c1576001600160a01b0385166000908152600360205260409020805460010190555b60008481526002602052604080822080546001600160a01b0319166001600160a01b0389811691821790925591518793918516917fddf252ad1be2c89b69c2b068fc378daa952ba7f163c4a11628f55a4df523b3ef91a4949350505050565b6007546001600160a01b031633146104935760405163118cdaa760e01b815233600482015260240161038e565b600780546001600160a01b038381166001600160a01b0319831681179093556040519116919082907f8be0079c531659141344cd1fd0a4f28419497f9722a3daafe3b4186f6b6457e090600090a35050565b610364828260405180602001604052806000815250610c9e565b60008281526006602052604090206107d18282611345565b506040518281527ff8e1a15aba9398e019f0b49df1a4fde98ee17ae345cb5f6b5e2c27f5033e8ce79060200160405180910390a15050565b6001600160a01b03821661083b57604051630b61174360e31b81526001600160a01b038316600482015260240161038e565b6001600160a01b03838116600081815260056020908152604080832094871680845294825291829020805460ff191686151590811790915591519182527f17307eab39ab6107e8899845ad3d59bd9653f200f220920489ca2b5937696c31910160405180910390a3505050565b6001600160a01b0383163b156109cc57604051630a85bd0160e11b81526001600160a01b0384169063150b7a02906108ea908890889087908790600401611405565b6020604051808303816000875af1925050508015610925575060408051601f3d908101601f1916820190925261092291810190611442565b60015b61098e573d808015610953576040519150601f19603f3d011682016040523d82523d6000602084013e610958565b606091505b50805160000361098657604051633250574960e11b81526001600160a01b038516600482015260240161038e565b805160208201fd5b6001600160e01b03198116630a85bd0160e11b146109ca57604051633250574960e11b81526001600160a01b038516600482015260240161038e565b505b5050505050565b60606109de826105e1565b50600082815260066020526040812080546109f890611283565b80601f0160208091040260200160405190810160405280929190818152602001828054610a2490611283565b8015610a715780601f10610a4657610100808354040283529160200191610a71565b820191906000526020600020905b815481529060010190602001808311610a5457829003601f168201915b505050505090506000610a8f60408051602081019091526000815290565b90508051600003610aa1575092915050565b815115610ad3578082604051602001610abb92919061145f565b60405160208183030381529060405292505050919050565b610adc84610cb6565b949350505050565b60006001600160e01b031982166380ac58cd60e01b1480610b1557506001600160e01b03198216635b5e139f60e01b145b8061029857506301ffc9a760e01b6001600160e01b0319831614610298565b8080610b4857506001600160a01b03821615155b15610c0a576000610b58846105e1565b90506001600160a01b03831615801590610b845750826001600160a01b0316816001600160a01b031614155b8015610b975750610b958184610550565b155b15610bc05760405163a9fbf51f60e01b81526001600160a01b038416600482015260240161038e565b8115610c085783856001600160a01b0316826001600160a01b03167f8c5be1e5ebec7d5bd14f71427d1e84f3dd0314c0f7b2291e5b200ac8c7c3b92560405160405180910390a45b505b5050600090815260046020526040902080546001600160a01b0319166001600160a01b0392909216919091179055565b610c45838383610d2b565b610413576001600160a01b038316610c7357604051637e27328960e01b81526004810182905260240161038e565b60405163177e802f60e01b81526001600160a01b03831660048201526024810182905260440161038e565b610ca88383610d8e565b6104133360008585856108a8565b6060610cc1826105e1565b506000610cd960408051602081019091526000815290565b90506000815111610cf95760405180602001604052806000815250610d24565b80610d0384610df3565b604051602001610d1492919061145f565b6040516020818303038152906040525b9392505050565b60006001600160a01b03831615801590610adc5750826001600160a01b0316846001600160a01b03161480610d655750610d658484610550565b80610adc5750506000908152600460205260409020546001600160a01b03908116911614919050565b6001600160a01b038216610db857604051633250574960e11b81526000600482015260240161038e565b6000610dc683836000610627565b90506001600160a01b03811615610413576040516339e3563760e11b81526000600482015260240161038e565b60606000610e0083610e86565b600101905060008167ffffffffffffffff811115610e2057610e206110aa565b6040519080825280601f01601f191660200182016040528015610e4a576020820181803683370190505b5090508181016020015b600019016f181899199a1a9b1b9c1cb0b131b232b360811b600a86061a8153600a8504945084610e5457509392505050565b60008072184f03e93ff9f4daa797ed6e38ed64bf6a1f0160401b8310610ec55772184f03e93ff9f4daa797ed6e38ed64bf6a1f0160401b830492506040015b6d04ee2d6d415b85acef81000000008310610ef1576d04ee2d6d415b85acef8100000000830492506020015b662386f26fc100008310610f0f57662386f26fc10000830492506010015b6305f5e1008310610f27576305f5e100830492506008015b6127108310610f3b57612710830492506004015b60648310610f4d576064830492506002015b600a83106102985760010192915050565b6001600160e01b0319811681146105b957600080fd5b600060208284031215610f8657600080fd5b8135610d2481610f5e565b60005b83811015610fac578181015183820152602001610f94565b50506000910152565b60008151808452610fcd816020860160208601610f91565b601f01601f19169290920160200192915050565b602081526000610d246020830184610fb5565b60006020828403121561100657600080fd5b5035919050565b80356001600160a01b038116811461102457600080fd5b919050565b6000806040838503121561103c57600080fd5b6110458361100d565b946020939093013593505050565b60008060006060848603121561106857600080fd5b6110718461100d565b925061107f6020850161100d565b9150604084013590509250925092565b6000602082840312156110a157600080fd5b610d248261100d565b634e487b7160e01b600052604160045260246000fd5b600067ffffffffffffffff808411156110db576110db6110aa565b604051601f8501601f19908116603f01168101908282118183101715611103576111036110aa565b8160405280935085815286868601111561111c57600080fd5b858560208301376000602087830101525050509392505050565b6000806040838503121561114957600080fd5b6111528361100d565b9150602083013567ffffffffffffffff81111561116e57600080fd5b8301601f8101851361117f57600080fd5b61118e858235602084016110c0565b9150509250929050565b600080604083850312156111ab57600080fd5b6111b48361100d565b9150602083013580151581146111c957600080fd5b809150509250929050565b600080600080608085870312156111ea57600080fd5b6111f38561100d565b93506112016020860161100d565b925060408501359150606085013567ffffffffffffffff81111561122457600080fd5b8501601f8101871361123557600080fd5b611244878235602084016110c0565b91505092959194509250565b6000806040838503121561126357600080fd5b61126c8361100d565b915061127a6020840161100d565b90509250929050565b600181811c9082168061129757607f821691505b6020821081036112b757634e487b7160e01b600052602260045260246000fd5b50919050565b634e487b7160e01b600052601160045260246000fd5b81810381811115610298576102986112bd565b6000600182016112f8576112f86112bd565b5060010190565b601f82111561041357600081815260208120601f850160051c810160208610156113265750805b601f850160051c820191505b818110156109ca57828155600101611332565b815167ffffffffffffffff81111561135f5761135f6110aa565b6113738161136d8454611283565b846112ff565b602080601f8311600181146113a857600084156113905750858301515b600019600386901b1c1916600185901b1785556109ca565b600085815260208120601f198616915b828110156113d7578886015182559484019460019091019084016113b8565b50858210156113f55787850151600019600388901b60f8161c191681555b5050505050600190811b01905550565b6001600160a01b038581168252841660208201526040810183905260806060820181905260009061143890830184610fb5565b9695505050505050565b60006020828403121561145457600080fd5b8151610d2481610f5e565b60008351611471818460208801610f91565b835190830190611485818360208801610f91565b0194935050505056fea2646970667358221220c35195cf6102e1aec17d21c29a1524957e5e0238366fe4e6169a0dbbfdc09a6664736f6c63430008140033",
  "linkReferences": {},
  "deployedLinkReferences": {}
}